:020000040800F2
:10000000101800204501000861100008BD0D00080F
:10001000210E0008AD0900084D1A0008000000007C
:100020000000000000000000000000004314000871
:10003000E1090008000000009111000855150008B2
:100040005F0100085F0100085F0100085F01000810
:100050005F0100085F0100085F0100085F01000800
:100060005F0100085F010008F10A00085F01000855
:100070005F0100085F0100085F0100085F010008E0
:100080005F0100085F0100085F0100085F010008D0
:100090005F0100085F0100085F0100085F010008C0
:1000A0005F0100085F0100085F0100085F010008B0
:1000B000B91500085F0100085F0100085F01000832
:1000C0005F0100085F0100085F0100085F01000890
:1000D0005F010008891700085F0100085F01000840
:1000E0005F0100085F0100085F0100085F01000870
:1000F0005F0100085F0100085F0100085F01000860
:100100005F0100085F0100085F0100085F0100084F
:100110005F0100085F0100085F0100085F0100083F
:100120005F0100085F0100085F0100085F0100082F
:10013000DFF80CD000F0ECFB0048004741610008FC
:10014000101800200648804706480047FEE7FEE7F3
:10015000FEE7FEE7FEE7FEE7FEE7FEE7FEE7FEE777
:10016000591500083101000840EA01039B0703D03C
:1001700009E008C9121F08C0042AFAD203E011F8E6
:10018000013B00F8013B521EF9D27047D2B201E0A8
:1001900000F8012B491EFBD270470022F6E710B58C
:1001A00013460A4604461946FFF7F0FF204610BDE5
:1001B000034611F8012B00F8012B002AF9D118464B
:1001C000704780EA010210B502F00043400022D0DF
:1001D0004A001FD0010E01EB1261C0F35600C2F3BA
:1001E000560240F4000042F40002A0FB022000048A
:1001F0007F39140400D0401C50EA124001D4400062
:10020000491EC2B20C0604EBD010401C4008802AE4
:1002100002D003E0002010BD20F00100002900DA28
:100220000020184310BD30B480EA010202F00045FE
:1002300030F0004221F0004013D090B1C30DD40D36
:10024000C2F31601C0F31600E41A41F4000140F4B1
:1002500000027D34914201D3641C00E04900002C6F
:1002600002DA30BC002070474FF4000000239142B6
:1002700001D3891A034340084FEA4101F7D151B134
:10028000914202D14FF0004105E002D24FF001014E
:1002900001E06FF0010103EBC450284430BC00F0D2
:1002A0003BBA2DE9FE4F804681EA0300C00F0C46A1
:1002B000009021F0004123F00045B8EB0200A94175
:1002C00005D24046214690461C460B46024623F086
:1002D0000040104347D0270DC7F30A00C3F30A516B
:1002E0000290401A019040286BDAC3F3130040F4E7
:1002F000801B0098924620B10023D2EB030A63EBE7
:100300000B0B01985946C0F14002504600F0D3F95A
:1003100006460D4650465946019A00F0EBF910EB9F
:1003200008006141002487EA115284EAE7731A4306
:1003300040D0009A62B3019A012A4FEA075215DCB5
:10034000001B61EB02014FF0004202EA0752CDE9C7
:100350000042001C41F5801132462B4600F022FA83
:1003600003B0BDE8F08F40462146F9E7001B61EB82
:100370000201001C41F5801300185B412018A2F512
:10038000001747EB030140EAD570B6196D4111E043
:100390006D084FEA360645EAC0754FEA0752001B62
:1003A00061EB0201001C41F5801149084FEA300061
:1003B0000019514132462B4603B0BDE8F04F00F022
:1003C000E2B90098012240000023D0EB020263EB67
:1003D000E073009821464FEAE074B8EB000061EB4F
:1003E0000401E9E783F000435BE781F0004158E74F
:1003F0002DE9FE4F81EA030404F0004421F000419E
:1004000000944FF0000B23F0004350EA01045ED04B
:1004100052EA03045BD0C3F30A54C1F30A552C44D7
:10042000A4F2F3340194A0FB0254C1F3130141F48C
:100430008011C3F3130343F4801301FB024400FB58
:10044000034E840A970A44EA815447EA8357A4FB7F
:10045000076802958D0A05FB07854FEA932C04FB7C
:100460000C542705029D4FEA065847EA1637B5EBAC
:1004700008056EEB070C870E920E47EA811742EAD9
:100480008312A7FB0201B6EB0B0164EB00042B0DFA
:1004900043EA0C335E1844EB1C50DA465146E7FB46
:1004A0000201C5F313044FEA0B3343EA14534FEA36
:1004B0000432019C43EA0603A4F10C040294009C5C
:1004C000CDE900B400F06EF903B0BDE8F08F002074
:1004D0000146F9E72DE9F04D81EA030404F0004BF1
:1004E00021F0004514464FF0000A23F0004150EA85
:1004F000050220D054EA01021DD0C5F30A57024676
:10050000C5F31303C1F31300C1F30A5640F4801579
:1005100043F48013A7EB0608101BD64608F2FD38FB
:1005200073EB050002D308F1010801E092185B416A
:10053000B8F1000F03DA00200146BDE8F08D00207D
:100540004FF48011064684460EE0171B73EB050737
:1005500005D3121B63EB050306434CEA010C490863
:100560004FEA300092185B4150EA0107EDD152EAA0
:10057000030012D082EA040083EA0501084305D093
:10058000101BAB4106D20122002306E000224FF0EF
:10059000004302E06FF0010253101AEB06004CEB2F
:1005A000085110EB0A0041EB0B01BDE8F04D00F0E3
:1005B000EAB8C10F80EAE0700844CA079623002118
:1005C00000F0B3B896230022114600F0AEB80EB585
:1005D000C10F80EAE0700844CA07002140F23343AB
:1005E0008DE80E000A460B4600F0DCF803B000BDB3
:1005F00070B5C1F30A5201F000450024C1F31301A4
:1006000040F2FF3341F480119A4201DA002070BDBC
:1006100040F233439A42A2F2334203DC524200F0EA
:1006200059F800E090402C43F1D0404270BD00F0FA
:10063000004230F000400AD0C10D01F56071C0F3F6
:10064000160042EA0151C2084007114370470020DA
:10065000014670472DE9F05F0546002092469B4613
:1006600088460646814640241BE0284641464746C8
:10067000224600F02FF853465A46C01A914110D333
:1006800011461846224600F016F82D1A67EB0108AD
:100690004F4622460120002100F00DF817EB00091B
:1006A0004E41201EA4F10104DFDC484631462A46B3
:1006B0004346BDE8F09F202A04DB203A00FA02F10D
:1006C000002070479140C2F1200320FA03F3194340
:1006D00090407047202A04DB203A21FA02F00021E2
:1006E000704721FA02F3D040C2F120029140084342
:1006F00019467047202A06DBCB17203A41FA02F050
:1007000043EAE07306E041FA02F3D040C2F120026E
:1007100091400843194670470029A8BF7047401C04
:10072000490008BF20F00100704710B4B0FA80FC07
:1007300000FA0CF050EA010404BF10BC704749B144
:10074000CCF1200421FA04F411FA0CF118BF0121B4
:1007500021430843A3EB0C01CB1D4FEA00614FEA94
:10076000102042BF002010BC704700EBC350104463
:100770000029A4BF10BC7047401C490008BF20F0EE
:10078000010010BC704710B5141E73F1000408DAA4
:10079000401C41F1000192185B411A4301D120F045
:1007A000010010BD2DE9F04D92469B4611B1B1FA02
:1007B00081F202E0B0FA80F220329046FFF77BFF30
:1007C00004460F4640EA0A0041EA0B0153465A46E6
:1007D000084313D0114653EA010019D0C8F1400272
:1007E0005046FFF777FF05460E46504659464246AB
:1007F000FFF761FF084305D0012004E02046394699
:10080000BDE8F08D0020054346EAE0762C433743EF
:100810000A986305E40AA0EB08000022FD0A44EAF6
:1008200047540A3002D500200146E9E701051019B6
:100830006941DDE9084500196941BDE8F04DA2E7CD
:1008400070B521F0004303430CD0C1F30A550024D6
:10085000D5EB040564EB0403D617AD1AB34102DBF4
:100860000020014670BD201841EB025170BD2DE9FA
:10087000F04D00231A461B1A8A4103DB0020014673
:10088000BDE8F08DC1F30A52C1F3130141F48015A4
:100890004FF0000BD10702D100186D41521E002706
:1008A000044640F2FF11384601EB620A3E4680469C
:1008B000024600204FF48011FFF70CFFC21971416E
:1008C000BB1846EB0100B4EB030C75EB000C04D332
:1008D000E41A65EB000517460E46241908F10100DD
:1008E0006D4180463428E3DDF91946EB0600091B0B
:1008F000A84103D24FF0FF32134601E00022134615
:100900001BEB070046EB0A51BDE8F04DFFF73BBF7C
:10091000064C074D06E0E06840F0010394E807004C
:1009200098471034AC42F6D3FFF706FCA0740008D9
:10093000C07400080EB540F2334102910021CDE9A8
:1009400000110A460B46FFF72DFF03B000BD70B53E
:100950008D1810F8014B14F0030201D110F8012B8F
:10096000231106D110F8013B03E010F8016B01F8E8
:10097000016B521EF9D1ABB110F8012B04F00C043D
:100980008A1A0C2C03D0A2EB84129B1C08E010F8EE
:10099000014BA2EB0422F8E712F8014B01F8014BDE
:1009A0005B1EF9D5A942D4D3002070BD00BFFEE77D
:1009B00010B5082005F05AFD04461CB10020606007
:1009C000204610BD02A004F0ADFA0020F9E70000B7
:1009D0006F7574206F6620706C6163652E0A00006D
:1009E0007047000010B56FF0040000F09FFD0A484A
:1009F00000680A49B0FBF1F0094908700846007820
:100A000000EB4001C1EBC0104FF6FF7101EAC000DE
:100A10000449088010BD00001000002000127A0078
:100A20000C0000200E0000200146114A12884A43A3
:100A30004FF0E0235A6100229A611A46126942F08F
:100A400001021A6100BF4FF0E022106900F00102BC
:100A50001AB100F48032002AF5D04FF0E02212697A
:100A600022F001024FF0E0231A6100229A617047E0
:100A70000E0000200146114A12784A434FF0E0234D
:100A80005A6100229A611A46126942F001021A6103
:100A900000BF4FF0E022106900F001021AB100F42B
:100AA0008032002AF5D04FF0E022126922F00102D4
:100AB0004FF0E0231A6100229A6170470C00002079
:100AC00010B50446204605F095F802A004F02AFA75
:100AD00010BD00006E6F7720737461636B206973C3
:100AE00020646573746F727965642E200A000000BB
:100AF00010B505A004F016FA012006490870102070
:100B000000F00AF810BD0000BDF8C8EBD6D0B6CF93
:100B100000000000540300200149086070470000F5
:100B20001404014030B5044604254FF4302000F091
:100B30006FF80546042D17D10C48006940F00200FB
:100B40000A49086108464461006940F040000861B4
:100B50004FF4302000F05CF805460448006941F687
:100B6000FD71084001490861284630BD002002405F
:100B700004200B49C96801F0010109B101200EE010
:100B80000749C96801F0040109B1022007E00449DE
:100B9000C96801F0100109B1032000E0042070478A
:100BA000002002400348006940F0800001490861CC
:100BB000704700000020024070B504460D46042630
:100BC000F00200F025F80646042E11D1094800690C
:100BD00040F00100074908612580F00200F018F894
:100BE00006460448006941F6FE7108400149086163
:100BF000304670BD00200240024803494860034867
:100C0000486070472301674500200240AB89EFCD63
:100C100000B502460423FFF7ABFF034603E0FFF7EE
:100C2000A7FF0346521E012B01D1002AF7D102B9BA
:100C30000523184600BD2DE9F04102460025002697
:100C4000002000230024002791F803C00CF00F05BA
:100C500091F803C00CF0100CBCF1000F03D091F818
:100C600002C04CEA050591F800C0BCF1000F31D07C
:100C7000146800202BE04FF0010C0CFA00F3B1F8DF
:100C800000C00CEA03069E4220D183004FF00F0CF7
:100C90000CFA03F7BC4305FA03FC4CEA040491F890
:100CA00003C0BCF1280F06D14FF0010C0CFA00FC78
:100CB000C2F814C00AE091F803C0BCF1480F05D196
:100CC0004FF0010C0CFA00FCC2F810C0401C0828C0
:100CD000D1D31460B1F800C0BCF1FF0F34DD54680B
:100CE00000202EE000F1080C4FF0010808FA0CF388
:100CF000B1F800C00CEA03069E4221D183004FF0F8
:100D00000F0C0CFA03F7BC4305FA03FC4CEA04048D
:100D100091F803C0BCF1280F05D100F1080C08FAC6
:100D20000CF8C2F8148091F803C0BCF1480F07D149
:100D300000F1080C4FF0010808FA0CF8C2F8108016
:100D4000401C0828CED35460BDE8F0814161704753
:100D5000016170470146012901D106487047022907
:100D600001D14807FAE7032901D10348F6E700203B
:100D7000F4E70000002C01400004004010B50446D8
:100D8000204600F01DF810B96068006810BD03A08F
:100D900004F0C8F84FF0FF30F8E7000073746163A7
:100DA0006B20697320656D70747920476574546F8A
:100DB00070456C656D656E742E0A000000BFFEE71D
:100DC0000146486808B9012070470020FCE7000090
:100DD00008B50121082000F01FFA4FF40050ADF8CB
:100DE000000010208DF8030002208DF802006946F3
:100DF0000148FFF720FF08BD000C014010B5044674
:100E00002CB94FF400510548FFF7A2FF04E04FF45E
:100E100000510248FFF79AFF10BD0000000C01408E
:100E200000BFFEE7F0B591B004460F4615462046D8
:100E3000FFF790FF06460EB911B0F0BD012C04D1AA
:100E40000121C80200F0E8F90CE0022C04D10121D4
:100E5000084600F0D1F905E0032C03D1012102205E
:100E600000F0CAF90CA800F0E7F940F2F310ADF871
:100E700020000020ADF822004FF4FA7078430C995E
:100E8000B1FBF0F0401E80B2ADF824000020ADF8B8
:100E900026008DF8280008A9304600F023FC6020C9
:100EA000ADF810000120ADF812000020ADF81400DC
:100EB000BDF824000121C1EB600080B2ADF816003E
:100EC0000020ADF81800ADF81A000802ADF81C00BB
:100ED0000020ADF81E0004A9304600F0ADFB002153
:100EE000304600F0F5FB4FF48040ADF80C000020D8
:100EF000ADF80800ADF80A00ADF806004FF48070B8
:100F0000ADF804000020ADF80000ADF8020069461D
:100F1000304600F063FB0121304600F07EFB0121EA
:100F2000042000F079F9012C03D12002ADF82C0047
:100F30000AE0022C03D10120ADF82C0004E0032CC0
:100F400002D14020ADF82C0018208DF82F00012090
:100F50008DF82E000BA90548FFF76DFE1DB101218C
:100F6000304600F04EFB00BF66E70000000801407D
:100F700010B5044624B108210448FFF7E9FE03E058
:100F800008210248FFF7E2FE10BD000000100140FA
:100F900008B50121082000F03FF90120ADF800005C
:100FA00010208DF8030002208DF8020069460A48DF
:100FB000FFF741FE0121102000F02EF93820ADF896
:100FC000000010208DF8030002208DF80200694611
:100FD0000248FFF730FE08BD000C01400010014040
:100FE00070B505460C46012D04D0022D0DD0032D01
:100FF00021D115E024B110211048FFF7A9FE03E02C
:1010000010210E48FFF7A2FE16E024B101210C4882
:10101000FFF79EFE03E001210948FFF797FE0BE072
:1010200024B120210548FFF793FE03E02021034867
:10103000FFF78CFE00E000BF00BF70BD0010014054
:10104000000C014070B505462846FFF783FE0446B4
:1010500004B970BD0021204600F0D3FA00BFF8E7C4
:101060007047000070B5002100230F22C47804B33C
:10107000154C246804F4E064C4F5E064210AC1F16D
:101080000403CA40447804FA03F1847814402143ED
:1010900009010E4C0678A155047804F01F050124BF
:1010A000AC4005786D11AD0005F1E025C5F80041B3
:1010B00009E0047804F01F050124AC40044D0678D3
:1010C000761145F8264070BD0CED00E000E400E02C
:1010D00080E100E002490143024A116070470000CC
:1010E0000000FA050CED00E010B504462146064864
:1010F00006F088F80549044801F0F4F8034801892E
:1011000003A003F00FFF10BD4C0C0020981100202D
:101110000D0A20643A20253464206D6D2E0D0A00DE
:1011200010B504462146064806F06CF80549044807
:1011300001F0D8F80348018903A003F0F3FE10BDC5
:10114000AC0D0020B41100200D0A20643A20253493
:1011500064206D6D2E0D0A0010B504462146064828
:1011600006F050F80549044801F0BCF8034801892D
:1011700003A003F0D7FE10BD0C0F0020D0110020FB
:101180000D0A20643A20253464206D6D2E0D0A006E
:10119000704770B504462046FFF712FE38B96568FF
:1011A00068686060284604F025FD012070BD0020BD
:1011B000FCE7000070B505460E46082005F056F91C
:1011C00004462CB12660686860606C60012070BDC8
:1011D00002A003F0A7FE0020F9E700006F7574205D
:1011E0006F6620706C61636520507573685374611D
:1011F000636B2E0A0000000029B1064AD26902433F
:10120000044BDA6104E0034AD2698243014BDA619C
:10121000704700000010024029B1064A926902435B
:10122000044B9A6104E0034A92698243014B9A613C
:10123000704700000010024030B500210022002459
:1012400000232D4D6D6805F00C0121B1042905D056
:10125000082923D105E0294D056022E0274D0560CE
:101260001FE0254D6D6805F47012234D6D6805F47F
:101270008034022505EB92421CB9214D554305608F
:101280000BE01D4D6D6805F400351DB11C4D554337
:10129000056002E0194D5543056002E0174D0560F9
:1012A00000BF00BF144D6D6805F0F0010909154D30
:1012B0006B5C0568DD4045600F4D6D6805F4E061CD
:1012C000090A104D6B5C4568DD4085600A4D6D680C
:1012D00005F46051C90A0B4D6B5C4568DD40C56083
:1012E000054D6D6805F44041890B074D6B5CC56881
:1012F000B5FBF3F5056130BD0010024000127A0025
:1013000000093D003C0000204C00002030B50346A1
:101310000C461546002207E0184600F008F824F8AD
:1013200012009B1C501C82B2AA42F5DB30BD014664
:10133000088870472DE9F05F80468A461746B8F165
:10134000006F02D33348804501D3BDE8F09FFFF71B
:1013500053FCA8F1006B4FEADB25CBF34909C9F533
:101360008064A74200DC3C464DE04FF0006101EB99
:10137000C5204A142849FFF7C9FF00260BE009EBF6
:101380000600254931F810004FF6FF71884200D061
:1013900003E0701C86B2A642F1DB00BFA6421BDA56
:1013A0004FF0006101EBC520FFF7BCFB002608E011
:1013B0003AF8160006EB0901174A22F81100701CD2
:1013C00086B2A642F4DB4FF0006101EBC5204A145F
:1013D000114900F023F804E022465146404600F04F
:1013E0001DF8A74200D10FE06D1C4FF000090AEB79
:1013F000440AA044381B87B2B7F5806F02DD4FF472
:10140000806400E03C46B0E700BFFFF7CBFB00BFC5
:101410009BE70000000004082C0400202DE9F041A7
:1014200005460E461746002407E036F814102846F5
:10143000FFF7C2FBAD1C601C84B2BC42F5DBBDE80B
:10144000F081704710B500F001F810BD0CB5002018
:10145000019000903348006840F4803031490860C2
:1014600000BF3048006800F4003000900198401C34
:101470000190009818B90198B0F5A06FF1D12948F2
:10148000006800F4003010B10120009001E000205D
:1014900000900098012843D12348006840F01000D4
:1014A000214908600846006820F0030008600846EB
:1014B000006840F0020008601A4840681949486016
:1014C0000846406848600846406840F480604860CC
:1014D0000846406820F47C1048600846406840F4A4
:1014E000E81048600846006840F08070086000BF5F
:1014F0000C48006800F000700028F9D009484068E6
:1015000020F00300074948600846406840F00200A8
:10151000486000BF0348406800F00C000828F9D17B
:101520000CBD00000010024000200240042808D139
:101530004FF0E021096941F004014FF0E022116110
:1015400007E04FF0E021096921F004014FF0E022AB
:10155000116170477047000010B51348006840F0F3
:1015600001001149086008464068104908400E49CA
:101570004860084600680E4908400B490860084664
:10158000006820F4802008600846406820F4FE00CF
:1015900048604FF41F008860FFF754FF4FF0006071
:1015A0000449086010BD0000001002400000FFF870
:1015B000FFFFF6FE08ED00E010B50121880700F0FE
:1015C0001DF80548007880F00100034908700846BE
:1015D0000078FFF713FC10BD000000200A884B883C
:1015E0001A438B881A43CB881A430B891A434B89B9
:1015F0001A438B891A43A0F844207047CA430282D9
:10160000704721B1028842F00102028004E00288A2
:101610004FF6FE731A400280704731B1B0F8442093
:1016200042F40042A0F8442005E0B0F84420C2F3A0
:101630000E02A0F84420704770B500240022002359
:10164000058C4FF6FE7635400584028C8388048B2A
:101650004FF68F752C40B51E2C400D882C43751EFF
:101660002A400D892A434D882A43144DA8420BD0A5
:10167000134DA84208D0134DA84205D0124DA842E0
:1016800002D0124DA84213D14FF6F7752A404D896A
:101690002A434FF6FB752A408D882A434FF6FF6593
:1016A0002B404FF6FF552B408D892B43CD892B4383
:1016B00083800483CD888586028470BD002C014020
:1016C0000034014000400140004401400048014016
:1016D0000A460021018B4FF6F7731940114301832D
:1016E00070470000002202881D4B98420ED01D4B0F
:1016F00098420BD0B0F1804F08D01B4B984205D0D8
:101700001A4B984202D01A4B984204D14FF68F736D
:101710001A404B881A43174B984207D0164B9842F1
:1017200004D04FF6FF431A40CB881A4302808B88BF
:1017300083850B8803850A4B98420BD0094B98424E
:1017400008D00E4B984205D00D4B984202D00D4B5D
:10175000984201D10B7A03860123838270470000EF
:10176000002C01400034014000040040000800400B
:10177000000C0040001000400014004000400140F8
:10178000004401400048014010B540F225511D4879
:1017900000F04AF810B31B4800F002F9C4B21A482E
:1017A000008800F40040C8B91748008800F4804061
:1017B00060B10A2C03D000201349088020E01248B1
:1017C000008840F400401049088019E00D2C06D133
:1017D0000D48008840F480400B49088010E00A481A
:1017E0000088C0F30D0009490C5407480088401CCC
:1017F0000549088008460088C72801DD00200880C8
:1018000010BD0000003801400400002064030020E7
:1018100021B1828942F40052828104E082894DF62E
:10182000FF731A408281704770B50246002400237E
:101830000025002040F66A16B14200D100BFC1F376
:10184000421501F01F03012606FA03F3012D02D110
:101850009689334006E0022D02D1168A334001E01A
:10186000968A33400C12012606FA04F41688344096
:1018700013B10CB1012000E0002070BDF0B50346AB
:10188000002400260025002040F66A17B94200D146
:1018900000BF1846C1F3421401F01F06012707FAE2
:1018A00006F5012C01D10C3004E0022C01D11030DE
:1018B00000E014301AB107682F43076002E00768A0
:1018C000AF430760F0BD00002DE9F04786B0054644
:1018D0000E460024A24600BFA1460027B08900B1F1
:1018E00000BF2F462C8A4CF6FF700440F08804435A
:1018F0002C82AC894EF6F3100440B088318908433D
:10190000718908430443AC81AC8A4FF6FF40044020
:10191000B0890443AC8201A8FFF78EFC1F488742C0
:1019200002D1DDF810A001E0DDF80CA0A88900F4D8
:10193000004040B10AEBCA0000EB0A1031684900D0
:10194000B0FBF1F807E00AEBCA0000EB0A103168BF
:101950008900B0FBF1F86420B8FBF0F00401200925
:10196000642101FB1089A88900F4004040B13220B5
:1019700000EBC900B0FBF1F000F00700044308E001
:10198000322000EB09106421B0FBF1F000F00F00F1
:1019900004432C8106B0BDE8F08700000038014008
:1019A00001468888C0F308007047000010B586B073
:1019B0000446012144F20400FFF72EFC4FF40070AE
:1019C000ADF8140003208DF8160018208DF81700CC
:1019D00005A91C48FFF72FF94FF48060ADF81400FB
:1019E00004208DF8170005A91648FFF724F92520D3
:1019F0008DF8000003208DF801008DF80200012011
:101A00008DF803006846FFF72DFB01940020ADF828
:101A10000800ADF80A00ADF80C00ADF810000C207D
:101A2000ADF80E0001A90848FFF74EFF012240F271
:101A300025510548FFF722FF01210348FFF7E8FE83
:101A400006B010BD000801400038014000BFFEE7AD
:101A50002DE9FC4106460F460024DA20855D012D64
:101A600003D0022D01D0032D2ED16B4601AA0121F6
:101A7000304600F0D7F904460198B0F57F0F03D83F
:101A80000098B0F57F0F1FD9F4B92FB11049304637
:101A900002F09AFA044617E00422FF21304601F0D2
:101AA0001CF8044300227021304601F016F804436C
:101AB0000022FF21304601F010F80443002280216B
:101AC000304601F00AF804432046BDE8FC810000DE
:101AD00043010020F8B506460F460024002500BF4C
:101AE00001220B21304600F0F8FF044600220B21B2
:101AF000304600F0F2FF04436A461321304600F0FE
:101B00001AFC0443681CC5B29DF8000000F00700F1
:101B100018B1032D01DA002CE2D0032D01DB6FF0A8
:101B20000B042046F8BD000070B592B005460024B5
:101B30000123FE228921284600F0A6FF04462CB985
:101B400000228821284600F0C8FF04460021F0202A
:101B500041554FF47A70A5F852014FF4C870A5F8BA
:101B600054015A48C5F858015948C5F8D4002962AB
:101B700002A9284600F0BEF8044654B900208DF8AA
:101B800008008DF80900402202A905F11000FEF7B7
:101B9000EBFA642005F59A7528804FF4617068802F
:101BA0004FF4FA70A8804FF4206028810120287734
:101BB000A5F59A7501228021284600F08EFF044386
:101BC0000122FF21284600F088FF0443002211462D
:101BD000284600F082FF044301AA9121284600F024
:101BE000AAFB04439DF8040085F83A010122002174
:101BF000284600F072FF04430022FF21284600F02F
:101C00006CFF044300228021284600F066FF044355
:101C1000002609E034B9B1B20122284600F0C6FC22
:101C2000044300E002E0761C062EF3DB00BF2CB973
:101C300000220221284600F0B9FC04462CB90022FB
:101C40000321284600F0B2FC04462CB900220421EE
:101C5000284600F0ABFC04462CB90022052128469A
:101C600000F0A4FC044634B94FF490120021284639
:101C700000F0FDFC044634B94FF4804201212846AF
:101C800000F0F5FC044634B94FF40C12022128464A
:101C900000F0EDFC04462CB900220321284600F098
:101CA000E6FC04465CB9FF2085F83001FF220121E3
:101CB000284600F012FF0446012085F8320114B9CD
:101CC000002185F81511204612B070BD856B01000A
:101CD000A470090070B504460D460026294620462A
:101CE00001F04EFA0646304670BD02460020137CD5
:101CF0000B7070472DE9F04107460D460024294638
:101D00003846FFF7F2FF04462CB905F108013846C2
:101D100000F051F804460CB9002028732CB905F1E5
:101D20001001384600F085FA04462CB905F114017B
:101D3000384600F037F90446E4B9002617E04CB9FC
:101D400005F1240000EB8602B1B2384600F099F8A4
:101D5000044300E00DE044B905F118008219B1B266
:101D6000384600F080F8044300E002E0761C062EBE
:101D7000E5DB00BF2CB905F13C01384600F034FA30
:101D8000044624B9291D384600F001F904462046CE
:101D9000BDE8F08170B506460C46002522460921B3
:101DA000304600F0C8FA05461DB9207800F0010061
:101DB0002070284670BD7CB506460C46002501AA59
:101DC000F821304600F0E3FA05462DB96A460421B1
:101DD000304600F0C6FA054655B9BDF8040028B1F2
:101DE000BDF804100098B0FBF1F020602168B161EB
:101DF00028467CBDF8B505460C4600266A461321E8
:101E0000284600F098FA06469DF8000000F007000A
:101E100020609DF8000000F0180008B16FF0050682
:101E20003046F8BD2DE9F8430746884614461D465E
:101E300000266A460E21384600F0A9FA0646BDF88B
:101E400000000005C008206056B96A460C213846DB
:101E500000F09DFA0646BDF800000005C0082860A5
:101E60003046BDE8F88330B503460020062903DB81
:101E7000001F0025157003E003F128056C5C147049
:101E800030BD2DE9F84305460E4617464FF00008D1
:101E9000C146062E2FD2DFE806F00307161A1E1FD2
:101EA0006C6B4FF0000929E06A464421284600F097
:101EB0006EFA8046B8F1000F02D1BDF8000044026E
:101EC0004FF001091AE0EC6B4FF0000916E02C6CA2
:101ED0004FF0000912E000BF6A466421284600F076
:101EE00056FA8046B8F1000F02D1BDF80000440256
:101EF0004FF0000902E06FF0030800BF00BFB8F127
:101F0000000F16D1B9F1010F12D144B905F1340017
:101F100050F826403C6000210C38815509E03C60B7
:101F200005F1340040F8264001210C38815500E0CD
:101F30003C604046BDE8F8832DE9FC4105460C466F
:101F40000026DA20475D042F0DD169462846FFF7A9
:101F500051FF06460098042802D10120207013E0AA
:101F60000020207010E001AA1421284600F0E3F9B7
:101F700006464EB99DF8040000F0010010B10120A2
:101F8000207001E0002020703046BDE8FC8170B573
:101F900004460D4600262946204601F004FC06466C
:101FA000304670BD70B504460D46002629462046D1
:101FB00001F070FC0646304670BD70B504460D4613
:101FC00000262946204601F091FC0646304670BDA9
:101FD00070B504460D4600262946204601F006FF4E
:101FE0000646304670BD2DE9F04F93B005460C46CD
:101FF0004FF000080C230AAA1421284600F0DDF94E
:102000008046B8F1000F7DD10020A07520609DF8BA
:1020100033009DF8321000EB012087B20020606091
:102020009DF82F009DF82E1000EB01200004C6093A
:10203000E6609DF831009DF8301000EB012080B281
:102040000F900F98400220619DF82B009DF82A10F8
:1020500000EB01201FFA80F9A4F814909DF82800E5
:102060001290B5F852010D9095F831B10D98B0F578
:102070007A7F2AD00D98784300F5FA704FF47A7180
:1020800090FBF1F087B2288C80B20E90287F1090E0
:102090001098D0B10E9800FB09F0A6EB202040B9B3
:1020A000BBF1000F02D042F2B82A0DE048F6E02A58
:1020B0000AE007FB06F10E9800FB09F0A6EB2020D2
:1020C000B1FBF0F01FFA80FA5746BBF1000F05D0C4
:1020D000B8102081B807000EE07502E027810020CB
:1020E000E07511A84B463246CDE9004028461299CA
:1020F00001F062FD40EA0808B8F1000F02D19DF836
:1021000044002076B8F1000F20D11C2205F15001C7
:1021100003A8FEF729F82089ADF81400E07D8DF8BA
:1021200023006089ADF8160060680490E0680690AE
:1021300020690790A08AADF82000207E8DF8240049
:102140001C2203A905F15000FEF70EF8404613B01B
:10215000BDE8F08FF8B506460C460025002000903B
:102160006A460121304600F0E6F805463DB92346AF
:102170009DF800200021304604F044FB05463DB99F
:10218000A31C9DF800200121304604F03BFB0546CE
:102190003DB9631C9DF800200221304604F032FB5B
:1021A00005463DB9E31C9DF800200321304604F0AC
:1021B00029FB05463DB9231D9DF80020042130462A
:1021C00004F020FB05462846F8BD2DE9F041044601
:1021D0000D461646002732462946204601F0A1FE4C
:1021E00007463846BDE8F081F8B506460C4600259E
:1021F0006A460121304600F09EF805466DB99DF80B
:10220000000086F830019DF8000000F0800010B159
:102210000120207001E00020207015B9217886F897
:102220004C102846F8BD10B502460020137F0B70F5
:1022300010BDF8B504460E4600276A462021204608
:1022400000F0A5F8074677B9BDF8000020B9256A67
:1022500035600021217706E0BDF80000C50035603B
:102260002562012121773846F8BD2DE9F041044669
:102270000D4616460027012332462946204601F026
:1022800077FF07463846BDE8F0812DE9F041044666
:102290000D461646002732462946204601F08EFF9D
:1022A00007463846BDE8F08138B505460024694642
:1022B0002846FFF71AFD044634B99DF8000018B906
:1022C000284600F08BFA04461CB9284601F0F1FEBE
:1022D00004462CB99DF8000010B9032085F832019E
:1022E000204638BD70B505460E460024002128461C
:1022F00000F090F804461CB92846FFF7D5FF0446C5
:1023000024B931462846FFF76EFE044624B9002161
:102310002846FFF7DFFB0446204670BD08B501469E
:1023200000200022009202E0009A521C0092009AC3
:10233000FA2AF9D308BD2DE9F04704460D461646A2
:10234000002794F85C9132462946484602F0DEF8B0
:102350008046B8F1000F01D06FF013073846BDE892
:10236000F0872DE9F04704460D461646002794F8FD
:102370005C9132462946484602F0D8F88046B8F1CA
:10238000000F01D06FF013073846BDE8F0872DE944
:10239000F04704460D461646002794F85C913246F5
:1023A0002946484602F0F3F88046B8F1000F01D004
:1023B0006FF013073846BDE8F0872DE9F047064671
:1023C000884691461C464FF0000A402C01D36FF01E
:1023D000030A96F85C71A3B24A464146384602F0B9
:1023E000C2F805460DB16FF0130A5046BDE8F087FC
:1023F0002DE9F04105460C460026274604EBD77030
:10240000C0F347028A21284600F067FB06463046A3
:10241000BDE8F0810246002003290BD003DC39B16E
:1024200001290BD105E0142905D0152906D103E0B7
:1024300000BF00BF00BF00BF117402E06FF00700D3
:1024400000BF00BF70472DE9F04780468946174618
:102450001E46DDF820A00024B9F1000F02D06FF075
:102460000904A0E0142F0CD1BAF1000F01D11025FE
:1024700000E001252A468421404600F02EFB044658
:1024800091E0152F5AD10122FF21404600F025FB93
:10249000044300221146404600F01FFB0443002283
:1024A000FF21404600F019FB0443012280214046F1
:1024B00000F013FB044302228521404600F00DFB8F
:1024C00004430422FF21404600F007FB044300229E
:1024D000CD21404600F001FB04431122CC214046AF
:1024E00000F0FBFA04430722FF21404600F0F5FA12
:1024F00004430022BE21404600F0EFFA04430622C6
:10250000FF21404600F0E9FA04430922CC2140466D
:1025100000F0E3FA04430022FF21404600F0DDFA18
:1025200004430122FF21404600F0D7FA0443002271
:102530001146404600F0D1FA044334E0A4B9052E18
:102540000ED2DFE806F0030507090B0000250AE0BC
:10255000012508E0022506E0032504E0042502E049
:102560006FF00A0400BF00BF2CB92A460A2140467A
:1025700000F0B3FA044664B9BAF1000F01D10025A6
:1025800000E010252B46EF228421404600F07CFA23
:10259000044614B9DA2000F8086024B90021404646
:1025A000FFF798FA04462046BDE8F0872DE9F05F72
:1025B00004460D4616464FF00009CB460027BA46A2
:1025C000062D02DB6FF0030941E02EB94FF0000B3E
:1025D00000274FF0010A06E004F1340050F825B05E
:1025E0004FF0000A0127062D2DD2DFE805F0030683
:1025F0000E1114202820075528E0CBF34F22442148
:10260000204600F080FA814620E084F82A701DE020
:1026100084F82B701AE04FEA4A604FEA106843468C
:10262000FE226021204600F02FFA81460EE04FEA9C
:102630000A704FEA10684346EF226021204600F0FE
:1026400023FA814602E06FF0030900BF00BFB9F131
:10265000000F09D126B9002104F12800415503E0FB
:10266000012104F1280041554846BDE8F09F2DE9BD
:10267000F04105460E461446002705F1280010F8E3
:102680000680B8F1000F03D10C3040F8264026E058
:10269000062E1BD2DFE806F003050D0F11126C6346
:1026A00017E0C4F34F224421284600F02CFA0746D5
:1026B0000FE0EC630DE02C640BE000BFC4F34F228D
:1026C0006421284600F01FFA074602E06FF0030776
:1026D00000BF00BF1FB905F1340040F8264038465E
:1026E000BDE8F08170B504460D4600262946204617
:1026F00001F0BAFF0646304670BD2DE9F8430746A3
:102700000D46904600260020009000246A460121D4
:102710003846FFF710FE06469DF80040002E36D1E1
:10272000B8F1010F19D1052D13D2DFE805F003062A
:10273000090C0F0044F010040EE044F028040BE0F4
:1027400044F0040408E044F0400405E044F0800450
:1027500002E06FF0030600BF19E0052D13D2DFE899
:1027600005F00306090C0F0004F0EF040EE004F07E
:10277000D7040BE004F0FB0408E004F0BF0405E01C
:1027800004F07F0402E06FF0030600BF00BF9DF875
:102790000000844210D02EB922460121384600F0B4
:1027A0009CF906460EB987F830412EB9D7F8149037
:1027B00049463846FFF796FF3046BDE8F8832DE9D5
:1027C000F04104460D46164600273246294620466B
:1027D00002F03EF807463846BDE8F0812DE9FC419D
:1027E00006460024012701A93046FFF77EFA0122A0
:1027F0008021304600F071F904460122FF21304665
:1028000000F06BF9044600221146304600F065F9ED
:10281000044696F83A219121304600F05EF90446CC
:1028200001220021304600F058F904460022FF2121
:10283000304600F052F9044600228021304600F074
:102840004CF904469DF8040020B1012823D0032848
:1028500043D131E001220021304600F03EF9044628
:102860000097BCB9002500BF2DB16A460021304653
:10287000FFF761FD04466D1C9DF800003840B8422A
:1028800003D114B9B5F5FA6FEED3B5F5FA6F01D3EC
:102890006FF0060424E024B901213046FFF7D8F890
:1028A000044602220021304600F017F9044614B90C
:1028B000042086F8320113E024B901213046FFF7E5
:1028C000C7F8044604220021304600F006F9044609
:1028D00014B9042086F8320102E06FF0070400BF4B
:1028E00000BF2046BDE8FC812DE9F04397B00546C6
:1028F0000024402107A8FDF750FC00200690059019
:10290000814600270490039000260121284600F00C
:10291000A5FC044695F8137195F81461012E05DCA9
:1029200001D1202F02D846B90C2F06D904AA03A939
:10293000284601F043FC044605E032463946284665
:1029400001F025FF0446DFF83C814CB995F8509121
:10295000B9F1000F02D1D5F84C8101E0DFF82481F4
:1029600024B94146284601F02FFB044644B9002013
:1029700004230246014600902846FFF764FD044602
:102980008CB90122FF21284600F0A7F8044606AAC8
:1029900084212846FFF7FBFC04430022FF21284640
:1029A00000F09BF8044324B9BDF818000001C5F8F5
:1029B000D40024B907A92846FFF79CF904464CB96E
:1029C00005A92846FFF7E6F904461CB99DF814004E
:1029D00085F831012CB9402207A905F11000FDF757
:1029E000C3FB54B905AA01212846FFF7A4FC0446FD
:1029F0001CB99DF8140085F830012CB9002211464D
:102A00002846FFF77AFE04462CB900220221284608
:102A1000FFF773FE044614B9032085F832012CB980
:102A200002AA00212846FFF7D0FB04461CB99DF8F6
:102A30000810E82041552CB902AA01212846FFF7C9
:102A4000C4FB04461CB99DF80810E02041552CB980
:102A500001AA0321284603F075F9044614B9E420BD
:102A6000019941512CB901AA0421284603F06AF9C1
:102A7000044614B9DC2001994151204617B0BDE845
:102A8000F0830000500000202DE9F84F04468946ED
:102A900015461E46002794F85CA16A4649465046F2
:102AA00001F034FD8046B8F1000F01D06FF013073C
:102AB00087B99DF800002840304300909DF8002021
:102AC0004946504602F043F88046B8F1000F01D065
:102AD0006FF013073846BDE8F88F2DE9F04704463C
:102AE0000D461646002794F85C9132462946484622
:102AF00002F02DF88046B8F1000F01D06FF01307F7
:102B00003846BDE8F0872DE9F04704460D461646E5
:102B1000002794F85C9132462946484602F038F87E
:102B20008046B8F1000F01D06FF013073846BDE8BA
:102B3000F0872DE9F04705460F4690461C464FF0BA
:102B40000009CA46402C01D36FF0030995F85C6177
:102B5000A3B242463946304602F006F88246BAF140
:102B6000000F01D06FF013094846BDE8F087000060
:102B70002DE9FF4F90B01746DDF8788012200F90B6
:102B80004FF480400E9042200D9006200C900720BC
:102B90000B90002000901098B0F854010A90109803
:102BA000D0F858010990DDE9091000FB01FA0AF19B
:102BB00080004FEA102A0A980AFB00FA00256FB13C
:102BC000119880020190019800EB5705B5FBF7F5CD
:102BD00005EB45056D4305F50040050C1D9913985F
:102BE00048430890089800F50040000C08900898A9
:102BF0004043089008F50040000C02900298C01C69
:102C00000621B0FBF1F002900298C0EBC0000290E8
:102C10000298B0F5803F02D3374807900DE008F1E5
:102C200003000621B0FBF1F8C8EBC80808F5004026
:102C3000000C079007984043079040F2271005903A
:102C400005984043059041F2041004900498083020
:102C500000090490DDE90410401A0590059800EB86
:102C6000400000010690069800F50050800B069089
:102C7000DDE9071044181F9804EB50041F98B4FBBB
:102C8000F0F4A403069804EB50040698B4FBF0F4A7
:102C90006C4304F5FA704FF47A71B0FBF1F424013F
:102CA00004F5FA70B0FBF1F44FF04009B9F1000FF0
:102CB00005D00AEB5900B0FBF9F0039001E00020C9
:102CC0000390039801F06AF9834624B10AEB54009B
:102CD000B0FBF4F600E00026304601F05FF906464E
:102CE0002098C0F800B0B34501D92098066000983C
:102CF00014B0BDE8F08F00000000F0FFE0B506461C
:102D000040F277634FF4106202FB01F5A5FB030765
:102D1000E0BD00002DE9FF4FABB0054688464FF4FB
:102D200048702A904FF4167029904FF4C8102890DC
:102D300041F25C202790B84826904FF470402590CF
:102D4000B6482490B64823904FF4004022904FF4A8
:102D50004810219040F27760209000BF286A1590BB
:102D60004FF47A71D8F810004843000C1690D8F848
:102D70000C000C900DAA4146284601F0A1F815AAB6
:102D80004146284601F0B0F813904FF47A710D983F
:102D900000FB01F707F50040070C15984843149015
:102DA0001498B0F5481F02D94FF4481014901398A6
:102DB000002849D1DC2040591E90E020405D06905B
:102DC0002846069A1E9900F02DF90990E4204059F2
:102DD0001D90E820405D05902846059A1D9900F059
:102DE00021F9089003200A900698082801D10220B2
:102DF0000A900A98C002DDE908121144484307907E
:102E0000079800F5FA704FF47A71B0FBF1F0079073
:102E100040F27761079848430790079800F5FA70E9
:102E20004FF47A71B0FBF1F007900D988030000AF2
:102E30000D9007990D9848431F901F988030000A05
:102E40001F900D9800020D90139818B113982FB091
:102E5000BDE8F08F4FB970492D9801600846C5F85C
:102E6000400100212E980160D4E01F9808B901208C
:102E70001F904FF448701B9016980004B0FBF7F6B3
:102E80006648864200D906464FF4167046431F999D
:102E900001EB4101880001F081F840001A90B8F878
:102EA00008005F494843199014984000C0EB074060
:102EB00000F5FA704FF47A71B0FBF1F012904810FF
:102EC00000EB0740B0FBF1F1119112980002129053
:102ED000DDE91112B2FBF1F0002801DB014600E050
:102EE0004142179117980002179098F8180010B1F6
:102EF0004FF4803410E041F25C211998B0FBF1F4FA
:102F00001798C0F58030444304F50040040C04F5E4
:102F1000803464086443A40B1B9804FB00FA0AF590
:102F200000404FEA104A0AFB0AFAB3460BF500408C
:102F30004FEA104B0BFB0BFB0AEB0B0010901098A9
:102F400001F02CF80F900F9800040F900F9832307A
:102F50006421B0FBF1F11A98B1FBF0F940F6B530FD
:102F600009FB00F941F2883081444000B9FBF0F9D7
:102F7000B9F5704F01D94FF47049DDE91D100844CF
:102F800000F5FA704FF47A71B0FBF1F01C904FF439
:102F9000C8111C9801EB5001B1FBF0F0049000F057
:102FA000FDFF0B900B9800020B900B9800F5FA7048
:102FB0004FF47A71B0FBF1F00B9009FB09FA0B9812
:102FC00000FB00FB0AEB0B0000F0E8FF0E904FF453
:102FD0007A710E98484318902FB11F9818B10E4976
:102FE0001898884201D90C4818902D9918980860B3
:102FF0002D980068C5F84001079A1B992E98234622
:10300000CDE90162009103902846DDE90C21FFF72C
:10301000AFFD139013981AE7AE878F0266666600BD
:103020009A9906002DE9F04307460C46154600BF65
:1030300029463846FFF762FE814609F5FA704FF4DB
:103040007A71B0FBF1F60846604300EB5600B0FB26
:10305000F6F84046BDE8F0832DE9F04306460C46FD
:103060001546002729463046FFF748FE804608F5FA
:10307000FA704FF47A71B0FBF1F904FB09F000F536
:10308000FA70B0FBF1F73846BDE8F0832DE9F04760
:1030900004460D46164600270221204600F0DEF8C1
:1030A0000746AFB994F8F180B8F1000F06D10020BF
:1030B000287009A0007886F8400009E0F220005D41
:1030C000287004F1F309494606F14000FDF770F855
:1030D0003846BDE8F08700000000000001460020EF
:1030E000CAB20B0A9A40501C7047014600204A1C85
:1030F0005206100E7047F8B50646002400228321C0
:103100003046FFF7EAFC0443B4B9002500BF6A4625
:1031100083213046FFF70FF904469DF8000000B9FF
:1031200004B103E06D1CB5F5FA6FF0D300BFB5F53F
:10313000FA6F01D36FF00604012283213046FFF7B6
:10314000CCFC04432046F8BD10B501460020002207
:10315000002361B14A1E02E052085C1CA3B222F0B7
:10316000FF04002CF8D1144663F31F24A0B210BD55
:10317000014600200122C2EB6102D0B2704700007C
:103180007CB506460C460025224669463046FFF7C8
:103190007DFF0546002D26D19DF8000020B91EA117
:1031A0002046FDF705F819E09DF80000222808DC0C
:1031B0009DF80000202804D01AA12046FCF7F8FF53
:1031C0000CE09DF80000272804DA19A12046FCF73E
:1031D000EFFF03E019A12046FCF7EAFF1DA104F16F
:1031E0002000FCF7E5FF35B904F16002C02130464C
:1031F000FFF7A1F805466DB901AAC2213046FFF7D5
:103200009AF80546012084F861009DF80400000941
:1032100084F8620028467CBD564C35334C3058202B
:1032200054533000564C35334C30582054533100F1
:10323000564C35334C30582054533200564C3533AD
:103240004C305820455331206F72206C6174657288
:1032500000000000564C35334C3058002DE9F04F3B
:1032600093B005460F46002400200E900D900C9060
:103270000B90824683464FF4C8500A904FF00009E5
:10328000002009900290F020465D072E7ED001229A
:1032900080212846FFF721FC04430122FF21284614
:1032A000FFF71BFC0443002211462846FFF715FCDC
:1032B00004430622FF212846FFF70FFC044312AA0D
:1032C00083212846FFF737F804439DF8480040F073
:1032D000040283212846FFF700FC04430722FF2154
:1032E0002846FFF7FAFB0443012281212846FFF715
:1032F000F4FB04432846FFF711F804430122802120
:103300002846FFF7EAFB044307F00100002855D0E8
:1033100006F00100002851D16B2294212846FFF7C6
:10332000DCFB04432846FFF7E6FE044311AA902184
:103330002846FFF716F804431198C0F306200E90B4
:103340001198C0F3C0300D90242294212846FFF735
:10335000C4FB04432846FFF7CEFE044311AA902184
:103360002846FEF7FEFF04431198000E8DF800007A
:103370001198000C8DF801001198000A8DF80200D8
:103380001198C0B28DF80300252200E0A4E1942139
:103390002846FFF7A2FB04432846FFF7ACFE044390
:1033A00011AA90212846FEF7DCFF04431198000E75
:1033B0008DF804001198000C8DF8050007F002004C
:1033C00002287DD106F002000028FAD102229421C1
:1033D0002846FFF782FB04432846FFF78CFE044390
:1033E00010AA90212846FEF7A6FF04437B229421D1
:1033F0002846FFF772FB04432846FFF77CFE044390
:103400000FAA90212846FEF796FF044377229421C5
:103410002846FFF762FB04432846FFF76CFE04438F
:1034200011AA90212846FEF79CFF04437F211198A2
:1034300001EA50608DF810001198C0F386408DF8B5
:1034400011001198C0F3C6208DF812001198C0F336
:1034500006108DF8130011980007400E1290782284
:1034600094212846FFF739FB04432846FFF743FE23
:10347000044311AA90212846FEF773FF04437F21DD
:10348000119801EA50709DF848100844C0B28DF8B8
:1034900014001198C0F386508DF815001198C0F3F0
:1034A000C6308DF816001198C0F306208DF817006D
:1034B0001198C0F346008DF818001198C00700E07D
:1034C0005FE0400E1290792294212846FFF705FB19
:1034D00004432846FFF70FFE044311AA9021284613
:1034E000FEF73FFF04437F21119801EA90609DF8A9
:1034F00048100844C0B28DF819001198C0F3C640B6
:103500008DF81A001198C0F306308DF81B00119841
:10351000C0F346108DF81C001198C006400E1290A2
:103520007A2294212846FFF7D8FA04432846FFF769
:10353000E2FD044311AA90212846FEF712FF04433E
:103540007F21119801EA90709DF848100844C0B29C
:103550008DF81D001198C0F3C6508DF81E0011980B
:10356000C0F306408DF81F001198C0F346208DF877
:1035700020001198C0F386008DF8210000208DF8FE
:10358000220007F00400042873D106F0040000288C
:103590006FD17B2294212846FFF79FFA04432846E7
:1035A000FFF7A9FD04430CAA90212846FEF7D9FE97
:1035B00004437C2294212846FFF78FFA04432846CF
:1035C000FFF799FD04430BAA90212846FEF7C9FE98
:1035D0000443732294212846FFF77FFA04432846C8
:1035E000FFF789FD044311AA90212846FEF7B9FE92
:1035F000044311980006000C099074229421284677
:10360000FFF76BFA04432846FFF775FD044311AA40
:1036100090212846FEF7A5FE04431199099840EA37
:1036200011600990752294212846FFF756FA044349
:103630002846FFF760FD044311AA90212846FEF7B3
:1036400090FE0443119800064FEA10497622942117
:103650002846FFF742FA04432846FFF74CFD04438F
:1036600011AA90212846FEF77CFE0443119849EAEE
:103670001069002281212846FFF72FFA0443062211
:10368000FF212846FFF729FA044312AA832128467E
:10369000FEF751FE04439DF8480000F0FB02832131
:1036A0002846FFF71AFA04430122FF212846FFF7B4
:1036B00014FA0443012200212846FFF70EFA0443BE
:1036C0000022FF212846FFF708FA04430022802148
:1036D0002846FFF702FA0443002C60D1072E5ED083
:1036E00007F00100A8B106F0010090B90E9885F826
:1036F00013010D9885F81401A04607E01DF8081085
:1037000005F5957000F8081008F10108B8F1060FEA
:10371000F4DB07F00200022811D106F0020070B9B4
:103720009DF84010F12041559DF83C10F220415584
:1037300005F1F300039004A90398FCF739FD07F0A5
:103740000400042824D106F0040008BB4FF48C7058
:103750000C994151001D0B9941510998400202906A
:103760004FF49071029848514FF0000BB9F1000FDF
:103770000CD00A98A9EB000A4FF47A700AFB00F00B
:103780004FEA101BCBF100000FFA80FBC5F80CB01C
:1037900046EA070012909DF84810F0204155204657
:1037A00013B0BDE8F08F2DE9F04F87B006460C4608
:1037B00000254FF4FA60039040F276774FF470786A
:1037C0004FF4257940F24E2A40F2B22B484602903F
:1037D00040F2262001900020009007EB08002060B6
:1037E00005A93046FEF7B6FC05461DB1284607B0D0
:1037F000BDE8F08F9DF8140028B99DF8150010B9A8
:103800009DF8160008B303AA0221304602F09AFA86
:103810000546D5B99DF8140020B12068039951449C
:10382000084420609DF8160038B120680399594477
:10383000022202FB0100206007E09DF8150020B184
:103840002068039949440844206075B99DF8170021
:1038500058B16A460321304602F074FA05462168E1
:10386000009A029810440844206075B99DF8180029
:1038700058B104AA0421304602F064FA05462168D2
:10388000049A01981044084420600DB921687161C0
:103890002846ACE72DE9F84306460C46002540F2E1
:1038A000FF774FF480586A4628213046FEF76FFDB7
:1038B0000546BDB9BDF80000C0F30B000090BDF88F
:1038C0000000B84208DDBDF80000A0EB080000B21F
:1038D000FA214843206005E0BDF8000000B2FA215B
:1038E000484320602846BDE8F883000070B50446D0
:1038F0000D460026204614F1080F54D01DDC10F1AF
:10390000140F64D00CDC10F1630F77D010F1320F7C
:103910006FD010F1280F64D010F11E0F73D15BE04F
:1039200010F10C0F30D010F10B0F4BD010F10A0F2B
:1039300043D010F1090F66D13AE0C01D082862D2C9
:10394000DFE800F02C271D18130E090432A12846C9
:10395000FCF72EFC5CE033A12846FCF729FC57E07D
:1039600037A12846FCF724FC52E03AA12846FCF790
:103970001FFC4DE03BA12846FCF71AFC48E040A1A3
:103980002846FCF715FC43E042A12846FCF710FC52
:103990003EE046A12846FCF70BFC39E046A128464C
:1039A000FCF706FC34E048A12846FCF701FC2FE0B8
:1039B0004CA12846FCF7FCFB2AE04FA12846FCF767
:1039C000F7FB25E051A12846FCF7F2FB20E056A1C9
:1039D0002846FCF7EDFB1BE059A12846FCF7E8FB65
:1039E00016E05DA12846FCF7E3FB11E006E000E0ED
:1039F00009E05FA12846FCF7DBFB09E063A128464C
:103A0000FCF7D6FB04E067A12846FCF7D1FB00BF1A
:103A100000BF304670BD00004E6F204572726F725D
:103A20000000000043616C6962726174696F6E200E
:103A30005761726E696E67204572726F7200000086
:103A40004D696E20636C6970706564206572726F79
:103A500072000000556E646566696E65642065726B
:103A6000726F7200496E76616C6964207061726178
:103A70006D6574657273206572726F72000000006C
:103A80004E6F7420737570706F7274656420657208
:103A9000726F7200496E74657272757074206E6F09
:103AA0007420436C656172656400000052616E674A
:103AB00065206572726F720054696D65206F757450
:103AC000206572726F7200004D6F6465206E6F74B6
:103AD00020737570706F72746564206572726F7296
:103AE0000000000042756666657220746F6F207377
:103AF0006D616C6C000000004750494F206E6F7480
:103B0000206578697374696E670000004750494FFB
:103B10002066756E6374206E6F7420737570706F9D
:103B20007274656400000000436F6E74726F6C20E5
:103B3000496E74657266616365204572726F7200CA
:103B4000496E76616C696420436F6D6D616E6420AF
:103B50004572726F720000004469766973696F6E16
:103B6000206279207A65726F204572726F72000050
:103B70005265666572656E636520537061642049A5
:103B80006E6974204572726F720000004E6F74206F
:103B9000696D706C656D656E746564206572726FB9
:103BA00072000000556E6B6E6F776E204572726FFB
:103BB0007220436F646500002DE9FF4F8FB0074608
:103BC0009946DDE91CA6002500200E900D900C9072
:103BD0000B900A9009900890002402900190109890
:103BE000C0F3C3045CB1052C09D0072C07D00C2C02
:103BF00005D00D2C03D00E2C01D00F2C02D14FF08C
:103C0000010B01E04FF0000B2DB90BAA0021384643
:103C1000FEF729F905469DF82C00D0B1CDB901ABCE
:103C200007AA51463846FFF775F8054615B90198B9
:103C3000AAF80A006DB906AA00213846FEF721F954
:103C40000546069828B1DDE90610884201D9012011
:103C50000E902DB909AA02213846FEF704F905464F
:103C60009DF8240050B34DBB05AA02213846FEF74B
:103C700008F905462DB90122FF213846FEF72DFF30
:103C800005462DB902AAB6213846FEF780FB054647
:103C90002DB90022FF213846FEF71FFF0546BDF86B
:103CA0000800400200900098C7F84801059828B124
:103CB00005990098884201D901200D902DB908AAD4
:103CC00003213846FEF7CFF805469DF82000C8B11D
:103CD000C5B9B9F1000F02D10020039004E011989A
:103CE0000002B0FBF9F0039004AA03213846FEF766
:103CF000C8F80546049828B1DDE90301884201D2DD
:103D000001200C9035BBBBF1010F02D1FF203070B8
:103D100028E0012C03D0022C01D0032C02D1052075
:103D200030701FE0062C01D0092C02D10420307025
:103D300018E0082C04D00A2C02D00D98012802D1DA
:103D4000032030700EE0042C02D00C98012802D120
:103D50000220307006E00E98012801D1307001E099
:103D600000203070307810B90020AAF80A000AAAA2
:103D700001213846FEF777F8054675BB9DF82C0003
:103D800010B10E98012802D14FF0010801E04FF068
:103D9000000887F82E80042C02D09DF8280010B966
:103DA0004FF0010801E04FF0000887F82F809DF8E0
:103DB000240010B10D98012802D14FF0010801E054
:103DC0004FF0000887F830809DF8200010B10C9863
:103DD000012803D14FF0010802E003E04FF0000892
:103DE00087F83180284613B0BDE8F08F70B50446DF
:103DF0000D460026062C22D2DFE804F003080D123F
:103E0000171C13A12846FCF7D3F91DE014A128467E
:103E1000FCF7CEF918E016A12846FCF7C9F913E023
:103E200017A12846FCF7C4F90EE019A12846FCF7B3
:103E3000BFF909E01AA12846FCF7BAF904E01CA171
:103E40002846FCF7B5F900BF00BF304670BD000042
:103E500052616E67652056616C6964202020000005
:103E60005369676D61204661696C20202020000045
:103E70005369676E616C204661696C2020200000E8
:103E80004D696E2052616E6765204661696C000065
:103E90005068617365204661696C20202020000015
:103EA0004861726477617265204661696C20000028
:103EB0004E6F205570646174652020202020000022
:103EC000F8B507460D4614460026E86820606A46A5
:103ED0002946384600F008F806461EB920680099C1
:103EE000084420603046F8BD2DE9F84305460E46EB
:103EF000144600270020206069462846FEF793F903
:103F000007465FB99DF8000040B1D5F82080B08A1F
:103F100000FB08F909F18000000A20603846BDE87E
:103F2000F883F8B507460C461546002614B1012C57
:103F30000ED106E06A4650213846FEF7FCF90646E7
:103F400009E06A4670213846FEF7F5F9064602E0B8
:103F50006FF0030600BF00BF26B99DF80000FFF711
:103F6000C4F828703046F8BD08B501210420FDF7DB
:103F700053F90C20ADF8000010208DF80300032049
:103F80008DF8020069460448FCF755FE0C210248F2
:103F9000FCF7DEFE08BD00000008014002460020DC
:103FA0004FF0804100E089089142FCD809E04318B5
:103FB000934204D84318D21A01EB500000E04008A5
:103FC00089080029F3D170472DE9FF5F06460D46A9
:103FD00000200390002463E02F5D641CFF2F44D178
:103FE000285D0290641C029830B1012811D002288B
:103FF0001CD0032834D126E015F80480641C15F881
:104000000490641C09EB08201FFA80FAA6F834A17A
:104010002AE015F80480641C15F80490641C09EB70
:1040200008201FFA80FAA6F836A11DE015F80480D2
:10403000641C15F80490641C09EB08201FFA80FA30
:10404000A6F838A110E015F80480641C15F8049057
:10405000641C09EB08201FFA80FAA6F83CA103E0D3
:104060006FF00300039000BF1AE0042F15DC285DF9
:104070000190641C4FF0000B05E0285D0DF80B006B
:10408000641C0BF1010BBB45F7DB3B466A4630462F
:104090000199FEF74EFD039002E06FF003000390DC
:1040A000285D10B10398002896D0039804B0BDE8AD
:1040B000F09FF8B50646002400200090002500BFC0
:1040C00069463046FDF738FF044604B10FE09DF81D
:1040D0000000012800D10AE06D1CB5F5FA6F02D38B
:1040E0006FF0060403E03046FEF718F9E8E700BF7A
:1040F0002046F8BD2DE9F04F85B005460E469046A6
:104100001F460024A146A246A3460FB195F8309160
:10411000022201212846FEF7E0FC044624B90021D2
:10412000284600F094F904468CB9B8F1010F0ED17D
:104130000120002104AA5B46CDE90026CDE902104A
:1041400052460146284600F037FA044601E00020B6
:1041500030704CB947B14A4601212846FEF7BDFCF4
:1041600004460CB985F83091204605B0BDE8F08FC3
:104170002DE9F0470546894616461F460024A0460D
:1041800095F8308100233A464946284600F07FF9E9
:10419000044634B900233A4631462846FFF7AAFFC1
:1041A000044644B9424601212846FEF796FC0446DF
:1041B0000CB985F830812046BDE8F0872DE9F74F2E
:1041C00094B0044600254FF0B40B032011902C202E
:1041D0001090002600200F900E904FF4206780462C
:1041E00081464FF0060A0C900B900A9009900890B7
:1041F00007900690B4F83C7100BF06E0002104F57A
:10420000927000F8091009F10109D145F6D3012295
:10421000FF212046FEF761FC05462DB900224F2103
:104220002046FEF75AFC05462DB92C224E21204689
:10423000FEF753FC05462DB90022FF212046FEF76C
:104240004CFC05462DB95A46B6212046FEF745FCE2
:1042500005462DB9002280212046FEF73EFC05468A
:1042600035B9002308AA09A92046FFF781FF0546B2
:104270008DB900260F96B0460FA91198CDE900AB75
:10428000CDE902600491414604F592739A1D2046DF
:1042900001F032FC0546002D44D10F9E0DA92046A9
:1042A00002F05EFA0546002D3AD1BDF83400B8425E
:1042B00036DDA94606E0002104F5927000F80910E9
:1042C00009F10109D145F6D300E0761C0BEB06009D
:1042D00001F02AFF10B910988642F6D34FF001087A
:1042E0000FA91198CDE900ABCDE9026004914146D8
:1042F00004F592739A1D204601F0FEFB05468DB928
:104300000F9E0DA9204602F02BFA054655B9BDF8BF
:104310003400B84206DD012006901198079001E0B4
:104320004FF00008002D7CD1BDF83400B84278DA97
:1043300008F0FF00069011980790524604F592711C
:1043400012A8FBF711FFBDF83410C81B002801DBD1
:10435000014600E041420B9100200A905DE00EAB67
:104360003246514604F5957001F0ACFC0E98401CA5
:1043700010B96FF0310553E00E990BEB010001F01D
:10438000D3FE404502D001200A9049E00798401C26
:1043900007900E9E3246514604F5927001F002FCE1
:1043A000054635B9761C04F59271204602F0CEFA26
:1043B000054605B134E00DA9204602F0D1F90546C5
:1043C00005B12DE0BDF83410C81B002801DB014603
:1043D00000E041420C91BDF83400B84215DDDDE942
:1043E0000B1088420DD912A9204602F0AFFA0546FB
:1043F000524612A904F59270FBF7B6FE0798401ECC
:10440000079001200A9008E00BE00C980B905246B0
:1044100004F5927112A8FBF7A7FE0A9800289ED017
:1044200000BF85B915990798086016990698087015
:10443000012184F815111598017884F81311169844
:10444000017884F81411284617B0BDE8F08F70B5D4
:1044500006460D46002434B945F0010200213046DD
:10446000FEF73BFB04461CB93046FFF722FE04462C
:1044700024B900213046FDF72DFB04462CB900225B
:1044800011463046FEF729FB0446204670BD2DE953
:10449000F04F85B005460E4690461F460024A146C3
:1044A000A246A346002004900FB195F83091012256
:1044B00011462846FEF711FB044624B94021284640
:1044C000FFF7C5FF044684B9B8F1010F0DD10020F4
:1044D000012104AA5B46CDE90062CDE902105246F3
:1044E000284600F069F8044601E0002030704CB91D
:1044F00047B14A4601212846FEF7EFFA04460CB9B7
:1045000085F83091204605B0BDE8F08F2DE9F041E7
:1045100004460D461646002701233246294620460A
:1045200000F021F807463846BDE8F081F8B50546A9
:104530000E461446002704236A463146284600F0FA
:1045400012F807469DF8000000069DF8011000EBE8
:1045500001409DF8021000EB01209DF80310084473
:1045600020603846F8BD2DE9F04106460F46144656
:104570001D464FF0000823462A463946304600F0D3
:10458000BBFB08B14FF001084046BDE8F081F8B52B
:1045900005460E461446002702236A463146284641
:1045A000FFF7E1FF07469DF801009DF8001000EBC2
:1045B000012020803846F8BD2DE9F84F80460D4691
:1045C00091469A46DDE90BB60D9F0024002000902D
:1045D0000122FF214046FEF780FA044300221146E3
:1045E0004046FEF77AFA04430022FF214046FEF7D8
:1045F00074FA044375B12EB1CB2140460A9AFDF7F7
:104600009AFE0443AFB16A46EE214046FDF793FEA1
:1046100004430EE02EB14A46CB214046FEF75DFA38
:10462000044337B153468022EE214046FEF72CFA70
:1046300004430122FF214046FEF74FFA04430122C2
:1046400000214046FEF749FA04430022FF2140467C
:10465000FEF743FA04439DF8000000F0EF008BF8EA
:1046600000002046BDE8F88F2DE9F04F89B0804664
:104670000F4600264FF4FA60069040F276794FF428
:10468000707A4FF4257B40F24E20059040F2B22024
:1046900004905846039040F226200290002001909A
:1046A00044F62060009000250098874204D22E1F17
:1046B000304609B0BDE8F08F09EB0A003C1A07A9A3
:1046C0004046FDF747FD0646002E3BD19DF81C00F5
:1046D00030B99DF81D0018B99DF81E00002831D092
:1046E00006AA0221404601F02DFB06460EB13046D7
:1046F000DFE79DF81C0040B1DDE905010D18A5427A
:1047000001D2641B01E06FF003060EB13046D0E722
:104710009DF81E0050B10699049808444500A54232
:1047200001D2641B0EE06FF003060BE09DF81D0044
:1047300040B1069800EB0B05A54201D2641B01E0D5
:104740006FF003060EB13046B3E79DF81F0070B15D
:1047500001AA0321404601F0F5FA064601990398A3
:104760000D18A54201D2641B01E06FF0030666B983
:104770009DF8200048B10298241A224604214046A0
:1047800002F0F0F80646C8F81470304691E72DE9BB
:10479000F04F87B0044689461646002500274FF0A3
:1047A000B40A4FF0060B2C2006900122FF21204670
:1047B000FEF793F905462DB900224F212046FEF75A
:1047C0008CF905462DB92C224E212046FEF785F99D
:1047D00005462DB90022FF212046FEF77EF9054649
:1047E0002DB95246B6212046FEF777F905464FF01F
:1047F000000806E0002104F5927000F8081008F1A6
:104800000108D845F6D34EB100E07F1C0AEB070043
:1048100001F08AFC10B906988742F6D305A804F582
:1048200092739A1D3146CDE900BACDE90279049020
:10483000204601F061F9054635B9012184F81511CA
:1048400084F8139184F81461284607B0BDE8F08F0E
:104850002DE9F04F87B007460E46154600244FF06D
:104860000C094FF0120A4FF0080B0E2005900020A3
:104870000190284605EBD0714910A5EB410109B123
:10488000241F10E036B94D4501DB554502DD6FF0C0
:10489000030408E0012E06D15D4502DB0598854240
:1048A00001DD6FF003041CB1204607B0BDE8F08FB6
:1048B000DEBB0C2D0CD1182257213846FEF70DF91E
:1048C0000446082256213846FEF707F90446E2E07E
:1048D0000E2D0CD1302257213846FEF7FEF8044643
:1048E000082256213846FEF7F8F80446D3E0102D8A
:1048F0000CD1402257213846FEF7EFF80446082233
:1049000056213846FEF7E9F80446C4E0122DDED100
:10491000502257213846FEF7E0F804460822562177
:104920003846FEF7DAF80446B5E0FFE7012ECED1AF
:10493000082D2AD1102248213846FEF7CEF8044629
:10494000082247213846FEF7C8F8044602223221E1
:104950003846FEF7C2F804430C2230213846FEF7F1
:10496000BCF804430122FF213846FEF7B6F80443A1
:10497000302211463846FEF7B0F804430022FF21EA
:104980003846FEF7AAF8044385E00A2D2AD12822EA
:1049900048213846FEF7A1F8044608224721384648
:1049A000FEF79BF80446032232213846FEF795F8BD
:1049B0000443092230213846FEF78FF804430122D0
:1049C000FF213846FEF789F804432022302138467B
:1049D000FEF783F804430022FF213846FEF77DF8F6
:1049E000044358E00C2D2AD1382248213846FEF7DE
:1049F00074F80446082247213846FEF76EF804464C
:104A0000032232213846FEF768F804430822302199
:104A10003846FEF762F804430122FF213846FEF7CC
:104A20005CF80443202230213846FEF756F8044350
:104A30000022FF213846FEF750F804432BE00E2DEC
:104A400029D1482211463846FEF747F80446082285
:104A500047213846FEF741F8044603223221384602
:104A6000FEF73BF80443072230213846FEF735F8BD
:104A700004430122FF213846FEF72FF80443202289
:104A800030213846FEF729F804430022FF2138463A
:104A9000FEF723F80443002C47D12846FEF768FBB5
:104AA000069016B1012E3CD124E003AA032138461A
:104AB00001F048F904462CB902AA0221384601F057
:104AC00041F904462CB950213846069AFEF705F8FC
:104AD00004462CB903213846039A01F043FF0446EB
:104AE0002CB902213846029A01F03CFF0446E82026
:104AF000C55519E004AA0421384601F023F90446FB
:104B00002CB970213846069AFDF7E7FF04462CB908
:104B100004213846049A01F025FF0446E020C555DB
:104B200002E06FF0030400BF00BF34B9D7F814806F
:104B300041463846FDF7D6FD044634B9012300222C
:104B400001A93846FFF7D6FA04462046ADE6F7B588
:104B500004460D460026012302AA2946204600F0FD
:104B600003F806463046FEBD2DE9F04106460F46E5
:104B700014461D464FF0000823462A463946304663
:104B800000F0A8F908B14FF001084046BDE8F081F7
:104B9000F8B506460C461546002728128DF8000089
:104BA000E8B28DF80100204604EBD0714910A4EB67
:104BB000410101290ED101236A4621463046FFF703
:104BC000D3FF074601236A4621463046FFF7CCFF54
:104BD000074606E002236A4621463046FFF7C4FF37
:104BE00007463846F8BD000010B500200F490860A0
:104BF0000F48006820F470600D490860084600689E
:104C000040F44070086000200A49C1F88801022081
:104C1000FBF730FF0120054908600220FBF72AFF5F
:104C200000200449C1F88C0110BD00008C01214214
:104C3000000801400000214210B500200F49086023
:104C40000F48006820F470600D490860084600684D
:104C500040F44070086001200A49C1F88801022030
:104C6000FBF708FF0120054908600220FBF702FF5F
:104C700000200449C1F88C0110BD00008C012142C4
:104C8000000801400000214270B505460024174885
:104C9000006820F47060154908600846006840F418
:104CA00000600860002616E000201149086004201A
:104CB000FBF7E0FE01200F49C1F88C016006040EED
:104CC0000B488438006808B1601CC4B20420FBF7AC
:104CD000D1FE701CC6B2082EE6DB15B9FFF7ACFF9B
:104CE00001E0FFF781FF204670BD00000008014091
:104CF0008C012142000021422DE9F04106460F4679
:104D000014461D4600F068F8304600F02BF800F01D
:104D1000AFF820B100F086F80120BDE8F0813846F8
:104D200000F020F800F0A4F800F056F846F001007A
:104D300000F018F800F09CF80DE0012C04D10020E0
:104D4000FFF7A2FF287003E00120FFF79DFF287006
:104D50006D1C601E84B2002CEFD100F063F80020BF
:104D6000DBE7000070B504461848006820F4706066
:104D7000164908600846006840F44070086000204A
:104D80001349086000251EE0E00920B10120104908
:104D9000091F086003E000200D49091F0860600634
:104DA000040E0220FBF766FE01200949086002207C
:104DB000FBF760FE00200749C1F88C010220FBF7D9
:104DC00059FE681CC5B2082DDEDB70BD000801402D
:104DD0008C0121420000214210B50F48006820F4E8
:104DE00070600D4908600846006840F44070086033
:104DF00001200A4908600A49C1F88C010420FBF728
:104E000039FE0020054908600420FBF733FE00202E
:104E10000349C1F88C0110BD0008014088012142FE
:104E20000000214210B50F48006820F470600D4961
:104E300008600846006840F44070086000200A4995
:104E400008600A49C1F888010420FBF713FE01201D
:104E5000054908600549C1F888010420FBF70AFEEE
:104E600010BD0000000801408C01214200002142D9
:104E700010B500241448006820F4706012490860DE
:104E80000846006840F40060086001200F4908608F
:104E9000FBF7F0FD01200E49C1F88C01FBF7EAFD9C
:104EA00007E0601CC4B2FA2C03DDFFF7BBFF012052
:104EB00010BD0648803800680028F2D10349091D5A
:104EC000086000BFF4E700000008014088012142AB
:104ED000000021422DE9F04107460D4616461C46CA
:104EE000FFF77AFF3846FFF73DFFFFF7C1FF20B11C
:104EF000FFF798FF0120BDE8F0812846FFF732FF59
:104F0000FFF7B6FF05E014F8010BFFF72BFFFFF7E3
:104F1000AFFF3000A6F101018EB2F4D1FFF782FF9E
:104F20000020E8E70FB4054B10B503A9044A029826
:104F300000F052FB10BC5DF814FB0000D95B0008C8
:104F400008000020490050EAC12018BF04204A0D83
:104F500018BF40F0010040F2FF72B2EB515F08BF92
:104F600040F00200012808BF052070472DE9F74FE7
:104F7000144694B00021C4E902111599079121F05B
:104F80000045C9498D4206DC1599C4E9000117B0F6
:104F90000020BDE8F08FC549DFF814A3A9423CDD2D
:104FA0000799C44E0029C44FC44A1599534619DDC8
:104FB000FBF718FA554506D0C14AC24BFBF712FA67
:104FC000C4E900010AE04FF0D352BE4BFBF70AFAE6
:104FD00032463B46FBF706FAC4E9000117B0012050
:104FE000BDE8F08FFBF75DF9554506D0B44AB54BE7
:104FF000FBF757F9C4E900010AE04FF0D352B14B77
:10500000FBF74FF932463B46FBF74BF9C4E9000189
:1050100017B04FF0FF30BDE8F08FAB49A9421599AA
:1050200078DB21F0004183468846A84AA84BFBF76D
:10503000DFF90022A74BFBF734F9FBF7D9FA099007
:10504000FBF7C5FA06460F469C4A5346FBF7D0F9D4
:1050500043465A46FBF7C9F980468A46984A994B17
:1050600030463946FBF7C4F92A0D01250B9242461A
:105070005346FBF7BAF9032DC4E9000139D00B9868
:10508000C1F30A51401A05EB45111139814230DA5A
:105090009148C346784400EB0510CDF80CA00C9065
:1050A000D0E9002330463946FBF7A2F902460B4609
:1050B0000491069058460399FBF794F980468A4676
:1050C00002460B4658460399FBF78CF9049B069A57
:1050D000FBF788F983460C9803913946D0E90223FF
:1050E0003046FBF785F95A46039BFBF77BF96D1CAD
:1050F000BDE707980028A2BF099817B0BDE8F08F58
:10510000616881F000416160099817B04042BDE8D4
:10511000F08FFFE784461598C1F31301C0F30A50DE
:10512000A0F2F5304FEA601800F01F06C6F120002B
:10513000139000200690079041F4801E05206D46D4
:1051400076B1664A08EB00017A4452F8213002EB4E
:105150008101B3404A68139922FA01F1194305E02D
:105160005F4908EB0002794451F82210A1FB0E2799
:10517000A1FB0C131A449A4234BF0123002303EB12
:10518000070A05EB8003D3E901B70F448F4234BF10
:105190000121002193448B4411B1934502D903E0CE
:1051A000934501D2012100E00021C3E901B7514438
:1051B00045F82010011EA0F10100C1DC0298059FF6
:1051C00000F10050800F12900298DDE90356800034
:1051D000FBF7FDF9834628460D91FBF7ABFB6FF01B
:1051E0001D02FBF72DFBCDE90E013046FBF7A2FBBC
:1051F0006FF03D02FBF724FB80468A463846FBF7FA
:1052000099FB6FF05D02FBF71BFB074642465346D6
:105210001191FBF746F8DDE90E23FBF742F85A46F9
:105220000D9BFBF73EF800250E465A4628460D9B7F
:10523000FBF7D8F8DDE90E23FBF7D4F842465346D6
:10524000FBF7D0F83A46119BFBF7CFF8DFF898A0B0
:10525000244A5346FBF7CCF807468846234A244B9A
:1052600031462846FBF7C4F83A464346FBF719F89F
:10527000074688464FF0A842534631462846FBF77A
:10528000B7F83A464346FBF70CF8159A12F0004F70
:1052900004D0129A81F0004152421292C4E90001F6
:1052A000129817B0BDE8F08FFB21E93F7CD902408E
:1052B000FB21F93F7370032E8A19A33B0000405471
:1052C0003163621A61B4D03DFB21394183C8C96D95
:1052D000305FE43F0000E03F18230000942200000C
:1052E00076220000182D4454FB21F93D3326A611E7
:1052F000460B113C2DE9FF4D21F0004807460C46B6
:10530000B8F1795F08DAFBF773F9002801BF0020D4
:10531000324904B0BDE8F08D3A462346104619469E
:10532000FBF766F8054602462D480E460B46062159
:10533000784400F05DF82A463346FBF759F8DDE97A
:10534000022382468B4638462146FBF751F8044635
:105350000F4652465B4628463146FBF749F822463F
:105360003B46FBF73FF807468A464FF0FF32284698
:105370003146FBF765FA1B4A90450ADA3A4653462E
:10538000FBF730F804B00022BDE8F04D134BFBF7FB
:105390002CB8154A4245A8BFA8F500154FF00004E7
:1053A000B8BF124D22462B46FBF71CF8064688462E
:1053B00022462B4600200949FBF714F804460D4607
:1053C0003A46534630464146FBF70CF804B02246B5
:1053D0002B46BDE8F04DFBF708B800000000F03F99
:1053E0004C2000003333D33F0000E93F0000D23FA0
:1053F0002DE9F0414F1E00EBC7010446D1E9000141
:1054000015461E4637F006020DD02A463346FAF7F7
:10541000EFFF7F1E04EBC703D3E90023FAF741FF38
:1054200037F00602F1D1022F25D0042F13D0062F1A
:1054300018BFBDE8F0812A463346FAF7D9FFD4E910
:105440000A23FAF72EFF2A463346FAF7D1FFD4E9AA
:105450000823FAF726FF2A463346FAF7C9FFD4E9AC
:105460000623FAF71EFF2A463346FAF7C1FFD4E9AE
:105470000423FAF716FF2A463346FAF7B9FFD4E9B0
:105480000223FAF70EFF2A463346FAF7B1FFD4E9B2
:105490000023BDE8F041FAF704BF00002DE9FF4DFD
:1054A000054621F0004084B00C46B0F1795F0BDA7C
:1054B0002846FFF747FD042808BF00F06FF828468C
:1054C00008B02146BDE8F08D2A460B461046FAF793
:1054D0008FFF06460F462A462346FAF789FF804685
:1054E00026488A4632463B4605217844FFF780FF2E
:1054F00083461098029160B3214A224B40465146A0
:10550000FAF776FFCDE900015A4640465146029B24
:10551000FAF76EFF82468846DDE906014FF0FF325A
:10552000FBF78EF952464346FAF75CFF32463B469C
:10553000FAF75EFFDDE90623FAF754FFDDE9002301
:10554000FAF750FF08B02A462346BDE8F04DFAF7B7
:105550004CBF0B465A4630463946FAF749FF084ACF
:10556000084BFAF79EFE42465346FAF741FF08B051
:105570002A462346BDE8F04DFAF793BE8A1F000085
:10558000495555555555C5BF0122FBF759B900225C
:10559000134610461146FAF79DBF0000024A00204C
:1055A0001107FBF74DB9000001FDFFFF02E008C83D
:1055B000121F08C1002AFAD170477047002001E08D
:1055C00001C1121F002AFBD1704700000149086089
:1055D00070470000600300202DE9FF4F8DB00F469B
:1055E0000546002606E025280BD0DDE90F1290477E
:1055F0006D1C761C28780028F5D111B03046BDE826
:10560000F08F0024A246A1460122EC4900E00443A9
:1056100015F8013F203B02FA03F00842F7D1287841
:105620002A2810D06FF02F022878A0F13001092924
:1056300014D80AEB8A0102EB410144F0020400EBAA
:10564000010A6D1CF0E701CF5FEA000A03D544F4BC
:105650000054CAF1000A44F002046D1C28782E2878
:1056600017D115F8010F44F004042A280ED06FF06A
:105670002F022878A0F1300109290AD809EB890105
:1056800002EB410100EB01096D1CF2E757F8049BA6
:105690006D1C28786C280FD006DC4C2817D06828A1
:1056A0000DD06A2814D104E0742810D07A280FD1C4
:1056B0000DE044F400140AE044F4801401E044F4E2
:1056C00040146978814202D104F580146D1C6D1C70
:1056D0002A786E2A1FD00CDC632A31D004DC002A21
:1056E0008BD0582A11D1A3E0642A68D0692A0CD142
:1056F00065E0732A2ED004DC6F2A73D0702A04D19F
:105700009BE0752A6FD0782A6ED01046DDE90F1223
:105710009047761C50E1C4F30250022806D00328BB
:1057200009D0042801CF09D0066045E101CFF11767
:10573000C0E9006140E101CF06803DE106703BE138
:1057400017F8040B8DF8000000208DF80100EB46DF
:10575000012003E057F804BB4FF0FF3061074FF022
:10576000000102D40DE008F10101884649450FDA35
:105770008045F8DB1BF808100029F4D108E008F197
:10578000010188468142FADB1BF808100029F6D196
:10579000DDE90F23AAEB08008146214600F036F927
:1057A000304400EB080604E0DDE90F121BF8010BA2
:1057B0009047B8F10108F7D221464846F7E00A21A0
:1057C000C4F302534FF0000B0891022B04D001CF19
:1057D000C117032B09D00AE0FF1D27F00707F7E8E0
:1057E000020108E032E01FE020E000B2C117042B04
:1057F00001D140B2C117031E71F1000307DA4FF067
:10580000000CD0EB0C006CEB01012D2302E0230512
:1058100004D52B238DF82430012303E0E30701D0C6
:105820002023F7E7984658E00A2110E010210EE007
:1058300010204FF0000B08900CE010214FF0000BEF
:1058400044F004044FF00809089103E008214FF0E8
:10585000000B0891C4F30253022B04D001CF0021A6
:10586000032B06D006E0FF1D27F00707F7E802012B
:1058700003E080B2042B00D1C0B24FF00008230730
:105880002BD5702A07D0DDF820C08CF0100C5CEA14
:105890000B0C05D00EE040238DF82430012308E0E6
:1058A00050EA010306D030238DF824308DF82520EE
:1058B00002239846DDF820C08CF0080C5CEA0B0C43
:1058C0000BD150EA010301D1630706D530238DF8CF
:1058D00024304FF00108A9F10109582A04D038A258
:1058E0000B9208AA0A920BE03AA2F9E75B46089AE3
:1058F000FAF7B0FE0B9B9B5C0A9A521E0A92137039
:1059000050EA0102F2D10A98ADEB000000F1200B41
:10591000600702D524F4803401E04FF00109D94535
:1059200002DDA9EB0B0000E0002000EB0B0141447D
:105930000890AAEB010AE00306D4DDE90F23214613
:10594000504600F063F806444FF0000908E009A94A
:1059500011F80900DDE90F12904709F10109761CE1
:10596000C145F4DBE0030CD5DDE90F2321465046A9
:1059700000F04CF8064404E0DDE90F1230209047B7
:10598000761C0899481E08900029F5DC08E00A9862
:105990000A990078491C0A91DDE90F129047761C9C
:1059A000BBF10001ABF1010BF1DC21465046DDE912
:1059B0000F2300F019F806446D1C1BE609280100AE
:1059C0003031323334353637383961626364656675
:1059D0000000000030313233343536373839414237
:1059E00043444546000000002DE9F04104460025EF
:1059F0001E461746880404D405E039462020B047E7
:105A00006D1C641EF9D52846BDE8F0812DE9F041F2
:105A1000044600251E469046C80301D5302700E005
:105A20002027880404D505E041463846B0476D1C60
:105A3000641EF9D52846BDE8F0810146002901DA47
:105A4000484270470846FCE700B5244B21F000426D
:105A500087B09A42DCBF0022134629DD204B9A42D0
:105A600008D140B94FF00100FFF7B0FDFFF78FFDFF
:105A700007B000BD03DBFFF787FD07B000BD02AA3A
:105A8000FFF774FA10F0030104BF0DF1080C9CE855
:105A90000F000DD0012001290ED0022914D00DF1E4
:105AA000080C00909CE80F00FFF7F8FC07B000BD61
:105AB000FFF720FC07B000BD0DF1080C00909CE83A
:105AC0000F00FFF7EBFC05E00DF1080C9CE80F0060
:105AD000FFF710FC07B081F0004100BDFB21E93F5A
